{
  "_format": "hh-sol-artifact-1",
  "contractName": "RWAToken",
  "sourceName": "contracts/RWAToken.sol",
  "abi": [
    {
      "inputs": [],
      "stateMutability": "nonpayable",
      "type": "constructor"
    },
    {
      "inputs": [
        {
          "internalType": "address",
          "name": "sender",
          "type": "address"
        },
        {
          "internalType": "uint256",
          "name": "tokenId",
          "type": "uint256"
        },
        {
          "internalType": "address",
          "name": "owner",
          "type": "address"
        }
      ],
      "name": "ERC721IncorrectOwner",
      "type": "error"
    },
    {
      "inputs": [
        {
          "internalType": "address",
          "name": "operator",
          "type": "address"
        },
        {
          "internalType": "uint256",
          "name": "tokenId",
          "type": "uint256"
        }
      ],
      "name": "ERC721InsufficientApproval",
      "type": "error"
    },
    {
      "inputs": [
        {
          "internalType": "address",
          "name": "approver",
          "type": "address"
        }
      ],
      "name": "ERC721InvalidApprover",
      "type": "error"
    },
    {
      "inputs": [
        {
          "internalType": "address",
          "name": "operator",
          "type": "address"
        }
      ],
      "name": "ERC721InvalidOperator",
      "type": "error"
    },
    {
      "inputs": [
        {
          "internalType": "address",
          "name": "owner",
          "type": "address"
        }
      ],
      "name": "ERC721InvalidOwner",
      "type": "error"
    },
    {
      "inputs": [
        {
          "internalType": "address",
          "name": "receiver",
          "type": "address"
        }
      ],
      "name": "ERC721InvalidReceiver",
      "type": "error"
    },
    {
      "inputs": [
        {
          "internalType": "address",
          "name": "sender",
          "type": "address"
        }
      ],
      "name": "ERC721InvalidSender",
      "type": "error"
    },
    {
      "inputs": [
        {
          "internalType": "uint256",
          "name": "tokenId",
          "type": "uint256"
        }
      ],
      "name": "ERC721NonexistentToken",
      "type": "error"
    },
    {
      "anonymous": false,
      "inputs": [
        {
          "indexed": true,
          "internalType": "address",
          "name": "owner",
          "type": "address"
        },
        {
          "indexed": true,
          "internalType": "address",
          "name": "approved",
          "type": "address"
        },
        {
          "indexed": true,
          "internalType": "uint256",
          "name": "tokenId",
          "type": "uint256"
        }
      ],
      "name": "Approval",
      "type": "event"
    },
    {
      "anonymous": false,
      "inputs": [
        {
          "indexed": true,
          "internalType": "address",
          "name": "owner",
          "type": "address"
        },
        {
          "indexed": true,
          "internalType": "address",
          "name": "operator",
          "type": "address"
        },
        {
          "indexed": false,
          "internalType": "bool",
          "name": "approved",
          "type": "bool"
        }
      ],
      "name": "ApprovalForAll",
      "type": "event"
    },
    {
      "anonymous": false,
      "inputs": [
        {
          "indexed": false,
          "internalType": "uint256",
          "name": "_fromTokenId",
          "type": "uint256"
        },
        {
          "indexed": false,
          "internalType": "uint256",
          "name": "_toTokenId",
          "type": "uint256"
        }
      ],
      "name": "BatchMetadataUpdate",
      "type": "event"
    },
    {
      "anonymous": false,
      "inputs": [
        {
          "indexed": false,
          "internalType": "uint256",
          "name": "_tokenId",
          "type": "uint256"
        }
      ],
      "name": "MetadataUpdate",
      "type": "event"
    },
    {
      "anonymous": false,
      "inputs": [
        {
          "indexed": true,
          "internalType": "address",
          "name": "producer",
          "type": "address"
        },
        {
          "indexed": false,
          "internalType": "uint256",
          "name": "tokenId",
          "type": "uint256"
        },
        {
          "indexed": false,
          "internalType": "string",
          "name": "tokenURI",
          "type": "string"
        },
        {
          "indexed": false,
          "internalType": "string",
          "name": "productId",
          "type": "string"
        },
        {
          "indexed": false,
          "internalType": "string",
          "name": "name",
          "type": "string"
        }
      ],
      "name": "ProductRegistered",
      "type": "event"
    },
    {
      "anonymous": false,
      "inputs": [
        {
          "indexed": true,
          "internalType": "address",
          "name": "from",
          "type": "address"
        },
        {
          "indexed": true,
          "internalType": "address",
          "name": "to",
          "type": "address"
        },
        {
          "indexed": true,
          "internalType": "uint256",
          "name": "tokenId",
          "type": "uint256"
        }
      ],
      "name": "Transfer",
      "type": "event"
    },
    {
      "inputs": [
        {
          "internalType": "address",
          "name": "to",
          "type": "address"
        },
        {
          "internalType": "uint256",
          "name": "tokenId",
          "type": "uint256"
        }
      ],
      "name": "approve",
      "outputs": [],
      "stateMutability": "nonpayable",
      "type": "function"
    },
    {
      "inputs": [
        {
          "internalType": "address",
          "name": "owner",
          "type": "address"
        }
      ],
      "name": "balanceOf",
      "outputs": [
        {
          "internalType": "uint256",
          "name": "",
          "type": "uint256"
        }
      ],
      "stateMutability": "view",
      "type": "function"
    },
    {
      "inputs": [
        {
          "internalType": "uint256",
          "name": "tokenId",
          "type": "uint256"
        }
      ],
      "name": "getApproved",
      "outputs": [
        {
          "internalType": "address",
          "name": "",
          "type": "address"
        }
      ],
      "stateMutability": "view",
      "type": "function"
    },
    {
      "inputs": [
        {
          "internalType": "string",
          "name": "productId",
          "type": "string"
        }
      ],
      "name": "getTokenIdByProductId",
      "outputs": [
        {
          "internalType": "uint256",
          "name": "",
          "type": "uint256"
        }
      ],
      "stateMutability": "view",
      "type": "function"
    },
    {
      "inputs": [
        {
          "internalType": "address",
          "name": "owner",
          "type": "address"
        },
        {
          "internalType": "address",
          "name": "operator",
          "type": "address"
        }
      ],
      "name": "isApprovedForAll",
      "outputs": [
        {
          "internalType": "bool",
          "name": "",
          "type": "bool"
        }
      ],
      "stateMutability": "view",
      "type": "function"
    },
    {
      "inputs": [],
      "name": "name",
      "outputs": [
        {
          "internalType": "string",
          "name": "",
          "type": "string"
        }
      ],
      "stateMutability": "view",
      "type": "function"
    },
    {
      "inputs": [
        {
          "internalType": "uint256",
          "name": "tokenId",
          "type": "uint256"
        }
      ],
      "name": "ownerOf",
      "outputs": [
        {
          "internalType": "address",
          "name": "",
          "type": "address"
        }
      ],
      "stateMutability": "view",
      "type": "function"
    },
    {
      "inputs": [
        {
          "internalType": "string",
          "name": "tokenURI",
          "type": "string"
        },
        {
          "internalType": "string",
          "name": "productId",
          "type": "string"
        },
        {
          "internalType": "string",
          "name": "name",
          "type": "string"
        },
        {
          "internalType": "string",
          "name": "description",
          "type": "string"
        }
      ],
      "name": "registerProduct",
      "outputs": [
        {
          "internalType": "uint256",
          "name": "",
          "type": "uint256"
        }
      ],
      "stateMutability": "nonpayable",
      "type": "function"
    },
    {
      "inputs": [
        {
          "internalType": "address",
          "name": "from",
          "type": "address"
        },
        {
          "internalType": "address",
          "name": "to",
          "type": "address"
        },
        {
          "internalType": "uint256",
          "name": "tokenId",
          "type": "uint256"
        }
      ],
      "name": "safeTransferFrom",
      "outputs": [],
      "stateMutability": "nonpayable",
      "type": "function"
    },
    {
      "inputs": [
        {
          "internalType": "address",
          "name": "from",
          "type": "address"
        },
        {
          "internalType": "address",
          "name": "to",
          "type": "address"
        },
        {
          "internalType": "uint256",
          "name": "tokenId",
          "type": "uint256"
        },
        {
          "internalType": "bytes",
          "name": "data",
          "type": "bytes"
        }
      ],
      "name": "safeTransferFrom",
      "outputs": [],
      "stateMutability": "nonpayable",
      "type": "function"
    },
    {
      "inputs": [
        {
          "internalType": "address",
          "name": "operator",
          "type": "address"
        },
        {
          "internalType": "bool",
          "name": "approved",
          "type": "bool"
        }
      ],
      "name": "setApprovalForAll",
      "outputs": [],
      "stateMutability": "nonpayable",
      "type": "function"
    },
    {
      "inputs": [
        {
          "internalType": "bytes4",
          "name": "interfaceId",
          "type": "bytes4"
        }
      ],
      "name": "supportsInterface",
      "outputs": [
        {
          "internalType": "bool",
          "name": "",
          "type": "bool"
        }
      ],
      "stateMutability": "view",
      "type": "function"
    },
    {
      "inputs": [],
      "name": "symbol",
      "outputs": [
        {
          "internalType": "string",
          "name": "",
          "type": "string"
        }
      ],
      "stateMutability": "view",
      "type": "function"
    },
    {
      "inputs": [
        {
          "internalType": "uint256",
          "name": "tokenId",
          "type": "uint256"
        }
      ],
      "name": "tokenURI",
      "outputs": [
        {
          "internalType": "string",
          "name": "",
          "type": "string"
        }
      ],
      "stateMutability": "view",
      "type": "function"
    },
    {
      "inputs": [
        {
          "internalType": "address",
          "name": "from",
          "type": "address"
        },
        {
          "internalType": "address",
          "name": "to",
          "type": "address"
        },
        {
          "internalType": "uint256",
          "name": "tokenId",
          "type": "uint256"
        }
      ],
      "name": "transferFrom",
      "outputs": [],
      "stateMutability": "nonpayable",
      "type": "function"
    }
  ],
  "bytecode": "0x60806040523480156200001157600080fd5b506040518060400160405280600881526020017f525741546f6b656e0000000000000000000000000000000000000000000000008152506040518060400160405280600381526020017f525741000000000000000000000000000000000000000000000000000000000081525081600090816200008f91906200032c565b508060019081620000a191906200032c565b505050600060078190555062000413565b600081519050919050565b7f4e487b7100000000000000000000000000000000000000000000000000000000600052604160045260246000fd5b7f4e487b7100000000000000000000000000000000000000000000000000000000600052602260045260246000fd5b600060028204905060018216806200013457607f821691505b6020821081036200014a5762000149620000ec565b5b50919050565b60008190508160005260206000209050919050565b60006020601f8301049050919050565b600082821b905092915050565b600060088302620001b47fffffffffffffffffffffffffffffffffffffffffffffffffffffffffffffffff8262000175565b620001c0868362000175565b95508019841693508086168417925050509392505050565b6000819050919050565b6000819050919050565b60006200020d620002076200020184620001d8565b620001e2565b620001d8565b9050919050565b6000819050919050565b6200022983620001ec565b62000241620002388262000214565b84845462000182565b825550505050565b600090565b6200025862000249565b620002658184846200021e565b505050565b5b818110156200028d57620002816000826200024e565b6001810190506200026b565b5050565b601f821115620002dc57620002a68162000150565b620002b18462000165565b81016020851015620002c1578190505b620002d9620002d08562000165565b8301826200026a565b50505b505050565b600082821c905092915050565b60006200030160001984600802620002e1565b1980831691505092915050565b60006200031c8383620002ee565b9150826002028217905092915050565b6200033782620000b2565b67ffffffffffffffff811115620003535762000352620000bd565b5b6200035f82546200011b565b6200036c82828562000291565b600060209050601f831160018114620003a457600084156200038f578287015190505b6200039b85826200030e565b8655506200040b565b601f198416620003b48662000150565b60005b82811015620003de57848901518255600182019150602085019450602081019050620003b7565b86831015620003fe5784890151620003fa601f891682620002ee565b8355505b6001600288020188555050505b505050505050565b61282e80620004236000396000f3fe608060405234801561001057600080fd5b50600436106100f55760003560e01c80636352211e11610097578063a22cb46511610066578063a22cb465146102aa578063b88d4fde146102c6578063c87b56dd146102e2578063e985e9c514610312576100f5565b80636352211e146101fc57806370a082311461022c5780638799d6fc1461025c57806395d89b411461028c576100f5565b8063095ea7b3116100d3578063095ea7b31461017857806310b995b11461019457806323b872dd146101c457806342842e0e146101e0576100f5565b806301ffc9a7146100fa57806306fdde031461012a578063081812fc14610148575b600080fd5b610114600480360381019061010f9190611a79565b610342565b6040516101219190611ac1565b60405180910390f35b6101326103a3565b60405161013f9190611b6c565b60405180910390f35b610162600480360381019061015d9190611bc4565b610435565b60405161016f9190611c32565b60405180910390f35b610192600480360381019061018d9190611c79565b610451565b005b6101ae60048036038101906101a99190611dee565b610467565b6040516101bb9190611e46565b60405180910390f35b6101de60048036038101906101d99190611e61565b6104ef565b005b6101fa60048036038101906101f59190611e61565b6105f1565b005b61021660048036038101906102119190611bc4565b610611565b6040516102239190611c32565b60405180910390f35b61024660048036038101906102419190611eb4565b610623565b6040516102539190611e46565b60405180910390f35b61027660048036038101906102719190611ee1565b6106dd565b6040516102839190611e46565b60405180910390f35b61029461086d565b6040516102a19190611b6c565b60405180910390f35b6102c460048036038101906102bf9190611fe4565b6108ff565b005b6102e060048036038101906102db91906120c5565b610915565b005b6102fc60048036038101906102f79190611bc4565b610932565b6040516103099190611b6c565b60405180910390f35b61032c60048036038101906103279190612148565b610944565b6040516103399190611ac1565b60405180910390f35b6000634906490660e01b7bffffffffffffffffffffffffffffffffffffffffffffffffffffffff1916827bffffffffffffffffffffffffffffffffffffffffffffffffffffffff1916148061039c575061039b826109d8565b5b9050919050565b6060600080546103b2906121b7565b80601f01602080910402602001604051908101604052809291908181526020018280546103de906121b7565b801561042b5780601f106104005761010080835404028352916020019161042b565b820191906000526020600020905b81548152906001019060200180831161040e57829003601f168201915b5050505050905090565b600061044082610aba565b5061044a82610b42565b9050919050565b610463828261045e610b7f565b610b87565b5050565b60008060088360405161047a9190612224565b908152602001604051809103902054036104c9576040517f08c379a00000000000000000000000000000000000000000000000000000000081526004016104c090612287565b60405180910390fd5b6008826040516104d99190612224565b9081526020016040518091039020549050919050565b600073ffffffffffffffffffffffffffffffffffffffff168273ffffffffffffffffffffffffffffffffffffffff16036105615760006040517f64a0ae920000000000000000000000000000000000000000000000000000000081526004016105589190611c32565b60405180910390fd5b60006105758383610570610b7f565b610b99565b90508373ffffffffffffffffffffffffffffffffffffffff168173ffffffffffffffffffffffffffffffffffffffff16146105eb578382826040517f64283d7b0000000000000000000000000000000000000000000000000000000081526004016105e2939291906122a7565b60405180910390fd5b50505050565b61060c83838360405180602001604052806000815250610915565b505050565b600061061c82610aba565b9050919050565b60008073ffffffffffffffffffffffffffffffffffffffff168273ffffffffffffffffffffffffffffffffffffffff16036106965760006040517f89c62b6400000000000000000000000000000000000000000000000000000000815260040161068d9190611c32565b60405180910390fd5b600360008373ffffffffffffffffffffffffffffffffffffffff1673ffffffffffffffffffffffffffffffffffffffff168152602001908152602001600020549050919050565b6000806008856040516106f09190612224565b9081526020016040518091039020541461073f576040517f08c379a00000000000000000000000000000000000000000000000000000000081526004016107369061232a565b60405180910390fd5b600060075490506107503382610db3565b61075a8187610dd1565b6007600081548092919061076d90612379565b9190505550806008866040516107839190612224565b908152602001604051809103902081905550836009600083815260200190815260200160002090816107b5919061256d565b50604051806040016040528085815260200184815250600a600083815260200190815260200160002060008201518160000190816107f3919061256d565b506020820151816001019081610809919061256d565b509050503373ffffffffffffffffffffffffffffffffffffffff167f58cca0b7903b082c24159230f0eea751055142b3db9b1fba50c8b309a6d9843b82888888604051610859949392919061263f565b60405180910390a280915050949350505050565b60606001805461087c906121b7565b80601f01602080910402602001604051908101604052809291908181526020018280546108a8906121b7565b80156108f55780601f106108ca576101008083540402835291602001916108f5565b820191906000526020600020905b8154815290600101906020018083116108d857829003601f168201915b5050505050905090565b61091161090a610b7f565b8383610e2d565b5050565b6109208484846104ef565b61092c84848484610f9c565b50505050565b606061093d82611153565b9050919050565b6000600560008473ffffffffffffffffffffffffffffffffffffffff1673ffffffffffffffffffffffffffffffffffffffff16815260200190815260200160002060008373ffffffffffffffffffffffffffffffffffffffff1673ffffffffffffffffffffffffffffffffffffffff16815260200190815260200160002060009054906101000a900460ff16905092915050565b60007f80ac58cd000000000000000000000000000000000000000000000000000000007bffffffffffffffffffffffffffffffffffffffffffffffffffffffff1916827bffffffffffffffffffffffffffffffffffffffffffffffffffffffff19161480610aa357507f5b5e139f000000000000000000000000000000000000000000000000000000007bffffffffffffffffffffffffffffffffffffffffffffffffffffffff1916827bffffffffffffffffffffffffffffffffffffffffffffffffffffffff1916145b80610ab35750610ab282611266565b5b9050919050565b600080610ac6836112d0565b9050600073ffffffffffffffffffffffffffffffffffffffff168173ffffffffffffffffffffffffffffffffffffffff1603610b3957826040517f7e273289000000000000000000000000000000000000000000000000000000008152600401610b309190611e46565b60405180910390fd5b80915050919050565b60006004600083815260200190815260200160002060009054906101000a900473ffffffffffffffffffffffffffffffffffffffff169050919050565b600033905090565b610b94838383600161130d565b505050565b600080610ba5846112d0565b9050600073ffffffffffffffffffffffffffffffffffffffff168373ffffffffffffffffffffffffffffffffffffffff1614610be757610be68184866114d2565b5b600073ffffffffffffffffffffffffffffffffffffffff168173ffffffffffffffffffffffffffffffffffffffff1614610c7857610c2960008560008061130d565b6001600360008373ffffffffffffffffffffffffffffffffffffffff1673ffffffffffffffffffffffffffffffffffffffff168152602001908152602001600020600082825403925050819055505b600073ffffffffffffffffffffffffffffffffffffffff168573ffffffffffffffffffffffffffffffffffffffff1614610cfb576001600360008773ffffffffffffffffffffffffffffffffffffffff1673ffffffffffffffffffffffffffffffffffffffff168152602001908152602001600020600082825401925050819055505b846002600086815260200190815260200160002060006101000a81548173ffffffffffffffffffffffffffffffffffffffff021916908373ffffffffffffffffffffffffffffffffffffffff160217905550838573ffffffffffffffffffffffffffffffffffffffff168273ffffffffffffffffffffffffffffffffffffffff167fddf252ad1be2c89b69c2b068fc378daa952ba7f163c4a11628f55a4df523b3ef60405160405180910390a4809150509392505050565b610dcd828260405180602001604052806000815250611596565b5050565b80600660008481526020019081526020016000209081610df1919061256d565b507ff8e1a15aba9398e019f0b49df1a4fde98ee17ae345cb5f6b5e2c27f5033e8ce782604051610e219190611e46565b60405180910390a15050565b600073ffffffffffffffffffffffffffffffffffffffff168273ffffffffffffffffffffffffffffffffffffffff1603610e9e57816040517f5b08ba18000000000000000000000000000000000000000000000000000000008152600401610e959190611c32565b60405180910390fd5b80600560008573ffffffffffffffffffffffffffffffffffffffff1673ffffffffffffffffffffffffffffffffffffffff16815260200190815260200160002060008473ffffffffffffffffffffffffffffffffffffffff1673ffffffffffffffffffffffffffffffffffffffff16815260200190815260200160002060006101000a81548160ff0219169083151502179055508173ffffffffffffffffffffffffffffffffffffffff168373ffffffffffffffffffffffffffffffffffffffff167f17307eab39ab6107e8899845ad3d59bd9653f200f220920489ca2b5937696c3183604051610f8f9190611ac1565b60405180910390a3505050565b60008373ffffffffffffffffffffffffffffffffffffffff163b111561114d578273ffffffffffffffffffffffffffffffffffffffff1663150b7a02610fe0610b7f565b8685856040518563ffffffff1660e01b815260040161100294939291906126ee565b6020604051808303816000875af192505050801561103e57506040513d601f19601f8201168201806040525081019061103b919061274f565b60015b6110c2573d806000811461106e576040519150601f19603f3d011682016040523d82523d6000602084013e611073565b606091505b5060008151036110ba57836040517f64a0ae920000000000000000000000000000000000000000000000000000000081526004016110b19190611c32565b60405180910390fd5b805181602001fd5b63150b7a0260e01b7bffffffffffffffffffffffffffffffffffffffffffffffffffffffff1916817bffffffffffffffffffffffffffffffffffffffffffffffffffffffff19161461114b57836040517f64a0ae920000000000000000000000000000000000000000000000000000000081526004016111429190611c32565b60405180910390fd5b505b50505050565b606061115e82610aba565b50600060066000848152602001908152602001600020805461117f906121b7565b80601f01602080910402602001604051908101604052809291908181526020018280546111ab906121b7565b80156111f85780601f106111cd576101008083540402835291602001916111f8565b820191906000526020600020905b8154815290600101906020018083116111db57829003601f168201915b5050505050905060006112096115b2565b9050600081510361121e578192505050611261565b60008251111561125357808260405160200161123b92919061277c565b60405160208183030381529060405292505050611261565b61125c846115c9565b925050505b919050565b60007f01ffc9a7000000000000000000000000000000000000000000000000000000007bffffffffffffffffffffffffffffffffffffffffffffffffffffffff1916827bffffffffffffffffffffffffffffffffffffffffffffffffffffffff1916149050919050565b60006002600083815260200190815260200160002060009054906101000a900473ffffffffffffffffffffffffffffffffffffffff169050919050565b80806113465750600073ffffffffffffffffffffffffffffffffffffffff168273ffffffffffffffffffffffffffffffffffffffff1614155b1561147a57600061135684610aba565b9050600073ffffffffffffffffffffffffffffffffffffffff168373ffffffffffffffffffffffffffffffffffffffff16141580156113c157508273ffffffffffffffffffffffffffffffffffffffff168173ffffffffffffffffffffffffffffffffffffffff1614155b80156113d457506113d28184610944565b155b1561141657826040517fa9fbf51f00000000000000000000000000000000000000000000000000000000815260040161140d9190611c32565b60405180910390fd5b811561147857838573ffffffffffffffffffffffffffffffffffffffff168273ffffffffffffffffffffffffffffffffffffffff167f8c5be1e5ebec7d5bd14f71427d1e84f3dd0314c0f7b2291e5b200ac8c7c3b92560405160405180910390a45b505b836004600085815260200190815260200160002060006101000a81548173ffffffffffffffffffffffffffffffffffffffff021916908373ffffffffffffffffffffffffffffffffffffffff16021790555050505050565b6114dd838383611632565b61159157600073ffffffffffffffffffffffffffffffffffffffff168373ffffffffffffffffffffffffffffffffffffffff160361155257806040517f7e2732890000000000000000000000000000000000000000000000000000000081526004016115499190611e46565b60405180910390fd5b81816040517f177e802f0000000000000000000000000000000000000000000000000000000081526004016115889291906127a0565b60405180910390fd5b505050565b6115a083836116f3565b6115ad6000848484610f9c565b505050565b606060405180602001604052806000815250905090565b60606115d482610aba565b5060006115df6115b2565b905060008151116115ff576040518060200160405280600081525061162a565b80611609846117ec565b60405160200161161a92919061277c565b6040516020818303038152906040525b915050919050565b60008073ffffffffffffffffffffffffffffffffffffffff168373ffffffffffffffffffffffffffffffffffffffff16141580156116ea57508273ffffffffffffffffffffffffffffffffffffffff168473ffffffffffffffffffffffffffffffffffffffff1614806116ab57506116aa8484610944565b5b806116e957508273ffffffffffffffffffffffffffffffffffffffff166116d183610b42565b73ffffffffffffffffffffffffffffffffffffffff16145b5b90509392505050565b600073ffffffffffffffffffffffffffffffffffffffff168273ffffffffffffffffffffffffffffffffffffffff16036117655760006040517f64a0ae9200000000000000000000000000000000000000000000000000000000815260040161175c9190611c32565b60405180910390fd5b600061177383836000610b99565b9050600073ffffffffffffffffffffffffffffffffffffffff168173ffffffffffffffffffffffffffffffffffffffff16146117e75760006040517f73c6ac6e0000000000000000000000000000000000000000000000000000000081526004016117de9190611c32565b60405180910390fd5b505050565b6060600060016117fb846118ba565b01905060008167ffffffffffffffff81111561181a57611819611cc3565b5b6040519080825280601f01601f19166020018201604052801561184c5781602001600182028036833780820191505090505b509050600082602001820190505b6001156118af578080600190039150507f3031323334353637383961626364656600000000000000000000000000000000600a86061a8153600a85816118a3576118a26127c9565b5b0494506000850361185a575b819350505050919050565b600080600090507a184f03e93ff9f4daa797ed6e38ed64bf6a1f0100000000000000008310611918577a184f03e93ff9f4daa797ed6e38ed64bf6a1f010000000000000000838161190e5761190d6127c9565b5b0492506040810190505b6d04ee2d6d415b85acef81000000008310611955576d04ee2d6d415b85acef8100000000838161194b5761194a6127c9565b5b0492506020810190505b662386f26fc10000831061198457662386f26fc10000838161197a576119796127c9565b5b0492506010810190505b6305f5e10083106119ad576305f5e10083816119a3576119a26127c9565b5b0492506008810190505b61271083106119d25761271083816119c8576119c76127c9565b5b0492506004810190505b606483106119f557606483816119eb576119ea6127c9565b5b0492506002810190505b600a8310611a04576001810190505b80915050919050565b6000604051905090565b600080fd5b600080fd5b60007fffffffff0000000000000000000000000000000000000000000000000000000082169050919050565b611a5681611a21565b8114611a6157600080fd5b50565b600081359050611a7381611a4d565b92915050565b600060208284031215611a8f57611a8e611a17565b5b6000611a9d84828501611a64565b91505092915050565b60008115159050919050565b611abb81611aa6565b82525050565b6000602082019050611ad66000830184611ab2565b92915050565b600081519050919050565b600082825260208201905092915050565b60005b83811015611b16578082015181840152602081019050611afb565b60008484015250505050565b6000601f19601f8301169050919050565b6000611b3e82611adc565b611b488185611ae7565b9350611b58818560208601611af8565b611b6181611b22565b840191505092915050565b60006020820190508181036000830152611b868184611b33565b905092915050565b6000819050919050565b611ba181611b8e565b8114611bac57600080fd5b50565b600081359050611bbe81611b98565b92915050565b600060208284031215611bda57611bd9611a17565b5b6000611be884828501611baf565b91505092915050565b600073ffffffffffffffffffffffffffffffffffffffff82169050919050565b6000611c1c82611bf1565b9050919050565b611c2c81611c11565b82525050565b6000602082019050611c476000830184611c23565b92915050565b611c5681611c11565b8114611c6157600080fd5b50565b600081359050611c7381611c4d565b92915050565b60008060408385031215611c9057611c8f611a17565b5b6000611c9e85828601611c64565b9250506020611caf85828601611baf565b9150509250929050565b600080fd5b600080fd5b7f4e487b7100000000000000000000000000000000000000000000000000000000600052604160045260246000fd5b611cfb82611b22565b810181811067ffffffffffffffff82111715611d1a57611d19611cc3565b5b80604052505050565b6000611d2d611a0d565b9050611d398282611cf2565b919050565b600067ffffffffffffffff821115611d5957611d58611cc3565b5b611d6282611b22565b9050602081019050919050565b82818337600083830152505050565b6000611d91611d8c84611d3e565b611d23565b905082815260208101848484011115611dad57611dac611cbe565b5b611db8848285611d6f565b509392505050565b600082601f830112611dd557611dd4611cb9565b5b8135611de5848260208601611d7e565b91505092915050565b600060208284031215611e0457611e03611a17565b5b600082013567ffffffffffffffff811115611e2257611e21611a1c565b5b611e2e84828501611dc0565b91505092915050565b611e4081611b8e565b82525050565b6000602082019050611e5b6000830184611e37565b92915050565b600080600060608486031215611e7a57611e79611a17565b5b6000611e8886828701611c64565b9350506020611e9986828701611c64565b9250506040611eaa86828701611baf565b9150509250925092565b600060208284031215611eca57611ec9611a17565b5b6000611ed884828501611c64565b91505092915050565b60008060008060808587031215611efb57611efa611a17565b5b600085013567ffffffffffffffff811115611f1957611f18611a1c565b5b611f2587828801611dc0565b945050602085013567ffffffffffffffff811115611f4657611f45611a1c565b5b611f5287828801611dc0565b935050604085013567ffffffffffffffff811115611f7357611f72611a1c565b5b611f7f87828801611dc0565b925050606085013567ffffffffffffffff811115611fa057611f9f611a1c565b5b611fac87828801611dc0565b91505092959194509250565b611fc181611aa6565b8114611fcc57600080fd5b50565b600081359050611fde81611fb8565b92915050565b60008060408385031215611ffb57611ffa611a17565b5b600061200985828601611c64565b925050602061201a85828601611fcf565b9150509250929050565b600067ffffffffffffffff82111561203f5761203e611cc3565b5b61204882611b22565b9050602081019050919050565b600061206861206384612024565b611d23565b90508281526020810184848401111561208457612083611cbe565b5b61208f848285611d6f565b509392505050565b600082601f8301126120ac576120ab611cb9565b5b81356120bc848260208601612055565b91505092915050565b600080600080608085870312156120df576120de611a17565b5b60006120ed87828801611c64565b94505060206120fe87828801611c64565b935050604061210f87828801611baf565b925050606085013567ffffffffffffffff8111156121305761212f611a1c565b5b61213c87828801612097565b91505092959194509250565b6000806040838503121561215f5761215e611a17565b5b600061216d85828601611c64565b925050602061217e85828601611c64565b9150509250929050565b7f4e487b7100000000000000000000000000000000000000000000000000000000600052602260045260246000fd5b600060028204905060018216806121cf57607f821691505b6020821081036121e2576121e1612188565b5b50919050565b600081905092915050565b60006121fe82611adc565b61220881856121e8565b9350612218818560208601611af8565b80840191505092915050565b600061223082846121f3565b915081905092915050565b7f50726f64756374204944206e6f7420666f756e64000000000000000000000000600082015250565b6000612271601483611ae7565b915061227c8261223b565b602082019050919050565b600060208201905081810360008301526122a081612264565b9050919050565b60006060820190506122bc6000830186611c23565b6122c96020830185611e37565b6122d66040830184611c23565b949350505050565b7f50726f6475637420494420616c72656164792072656769737465726564000000600082015250565b6000612314601d83611ae7565b915061231f826122de565b602082019050919050565b6000602082019050818103600083015261234381612307565b9050919050565b7f4e487b7100000000000000000000000000000000000000000000000000000000600052601160045260246000fd5b600061238482611b8e565b91507fffffffffffffffffffffffffffffffffffffffffffffffffffffffffffffffff82036123b6576123b561234a565b5b600182019050919050565b60008190508160005260206000209050919050565b60006020601f8301049050919050565b600082821b905092915050565b6000600883026124237fffffffffffffffffffffffffffffffffffffffffffffffffffffffffffffffff826123e6565b61242d86836123e6565b95508019841693508086168417925050509392505050565b6000819050919050565b600061246a61246561246084611b8e565b612445565b611b8e565b9050919050565b6000819050919050565b6124848361244f565b61249861249082612471565b8484546123f3565b825550505050565b600090565b6124ad6124a0565b6124b881848461247b565b505050565b5b818110156124dc576124d16000826124a5565b6001810190506124be565b5050565b601f821115612521576124f2816123c1565b6124fb846123d6565b8101602085101561250a578190505b61251e612516856123d6565b8301826124bd565b50505b505050565b600082821c905092915050565b600061254460001984600802612526565b1980831691505092915050565b600061255d8383612533565b9150826002028217905092915050565b61257682611adc565b67ffffffffffffffff81111561258f5761258e611cc3565b5b61259982546121b7565b6125a48282856124e0565b600060209050601f8311600181146125d757600084156125c5578287015190505b6125cf8582612551565b865550612637565b601f1984166125e5866123c1565b60005b8281101561260d578489015182556001820191506020850194506020810190506125e8565b8683101561262a5784890151612626601f891682612533565b8355505b6001600288020188555050505b505050505050565b60006080820190506126546000830187611e37565b81810360208301526126668186611b33565b9050818103604083015261267a8185611b33565b9050818103606083015261268e8184611b33565b905095945050505050565b600081519050919050565b600082825260208201905092915050565b60006126c082612699565b6126ca81856126a4565b93506126da818560208601611af8565b6126e381611b22565b840191505092915050565b60006080820190506127036000830187611c23565b6127106020830186611c23565b61271d6040830185611e37565b818103606083015261272f81846126b5565b905095945050505050565b60008151905061274981611a4d565b92915050565b60006020828403121561276557612764611a17565b5b60006127738482850161273a565b91505092915050565b600061278882856121f3565b915061279482846121f3565b91508190509392505050565b60006040820190506127b56000830185611c23565b6127c26020830184611e37565b9392505050565b7f4e487b7100000000000000000000000000000000000000000000000000000000600052601260045260246000fdfea264697066735822122053c06cb98d852075f1ed96683344b1729def1e12d99f93b584663c1d4946bca564736f6c63430008170033",
  "linkReferences": {},
  "deployedLinkReferences": {}
}